:020000040800F2
:10000000B0160020A9010008B1010008B3010008E2
:10001000B5010008B7010008B901000800000000A0
:10002000000000000000000000000000BB0100080C
:10003000BD01000800000000BF010008B511000864
:10004000C3010008C3010008C3010008C301000880
:10005000C3010008C3010008C3010008C301000870
:10006000C3010008C3010008C3010008C301000860
:10007000C3010008C3010008C3010008C301000850
:10008000C3010008C3010008C3010008000000000C
:10009000000000000000000000000000C301000894
:1000A000C3010008C3010008C3010008C301000820
:1000B000C3010008C3010008C3010008C301000810
:1000C000C3010008C3010008C3010008C301000800
:1000D000C3010008C3010008C301000800000000BC
:1000E000C3010008C3010008C301000800000000AC
:1000F000000000000000000000000000C301000834
:1001000000000000C3010008C3010008C30100088B
:1001100000000000000000000000000000000000DF
:10012000C3010008C3010008C3010008C30100089F
:10013000C3010008000000000000000000000000F3
:10014000000000000000000000000000C3010008E3
:10015000C3010008C3010008C3010008C30100086F
:10016000C3010008C30100080000000000000000F7
:10017000000000000000000000000000000000007F
:1001800000000000C30100080000000000000000A3
:10019000C3010008DFF80CD000F07AF800480047EF
:1001A000D1160008B01600200648804706480047D0
:1001B000FEE7FEE7FEE7FEE7FEE7FEE7FEE7FEE717
:1001C000FEE7FEE765120008950100082DE9F05FE3
:1001D0000546002092469B468846064681464024B6
:1001E0001BE0284641464746224600F041F8534668
:1001F0005A46C01A914110D311461846224600F0C3
:1002000028F82D1A67EB01084F46224601200021ED
:1002100000F01FF817EB00094E41201EA4F1010465
:10022000DFDC484631462A464346BDE8F09FD2B25D
:1002300001E000F8012B491EFBD270470022F6E7CF
:1002400010B513460A4604461946FFF7F0FF20464C
:1002500010BD202A04DB203A00FA02F1002070478A
:100260009140C2F1200320FA03F3194390407047F4
:10027000202A04DB203A21FA02F00021704721FAFB
:1002800002F3D040C2F12002914008431946704762
:10029000064C074D06E0E06840F0010394E80700D3
:1002A00098471034AC42F6D3FFF778FF9817000850
:1002B000B8170008002229B101291AD002291BD041
:1002C0004FF440720E490B6823F440730B600B68C7
:1002D00013430B600A6822F0F8020A600A680223DE
:1002E00003EBC00002430A60086840F480300860F5
:1002F00070474FF48072E5E74FF40072E2E70000C8
:10030000103C02401348016889050FD5016821F4AB
:1003100000710160016841F400610160016821F42D
:1003200000610160016841F40071016001684905E4
:100330000FD5016821F480610160016841F48051AA
:100340000160016821F480510160016841F480611D
:1003500001607047003C024008490A6822F440727C
:100360000A600A6842F004020A600A684FF48033A7
:1003700043EA002002430A6070470000103C02403C
:10038000064A136823F440731360136813601368FC
:1003900043F001031360017070470000103C0240FD
:1003A000084910B50C6824F440740C600C6844F4DF
:1003B00040740C600C6844F001040C6002604360FF
:1003C00010BD0000103C0240074A136823F440733C
:1003D0001360136843F480731360136843F00103E0
:1003E0001360018070470000103C0240074A136808
:1003F00023F440731360136843F4007313601368AD
:1004000043F001031360016070470000103C02409C
:100410001C490868C2061C4805D5C26942F0100292
:10042000C26110220A600A68920605D5C26942F0CC
:100430000802C26120220A600A68520605D5C26914
:1004400042F00402C26140220A600A68120605D521
:10045000C26942F00202C26180220A600A68D205C3
:1004600006D5C26942F00102C2614FF480720A608F
:100470000A68920705D5C26942F02002C2610220D3
:10048000086070470C3C02408C12002070B5114986
:1004900004460020C86100F0D3F906460E4D09E07D
:1004A000601C07D024B100F0CBF9801BA04201D919
:1004B000032070BD2868C003F2D42868C00701D0AB
:1004C00001202860286810F4F970F2D0FFF7A0FF2F
:1004D000012070BD8C1200200C3C024010B50400BD
:1004E00002D0607910B106E0012010BD002020711B
:1004F000204600F007F802206071012060710020A2
:1005000010BD000008B500680649884208D10648B9
:10051000016841F480510160006800F4805000904F
:1005200008BD0000003002403038024070B504467B
:1005300000F086F90546601C02D0044800780444A7
:1005400000F07EF9401BA042FAD370BD08000020E5
:100550002DE9F047044622480F46017E01290AD0C2
:100560000121804601764CF250394846FFF78EFF54
:10057000020003D02FE00220BDE8F0874FF0FF30EB
:1005800038602068174D012801D0A6681CE0207C47
:100590006168FFF7E1FE4846FFF778FF02462868EA
:1005A00020F00400286014E0217C3046FFF782FE32
:1005B0004846FFF76BFF0200286820F0FA00286029
:1005C00001D03E6005E0761CD4E902100844B04238
:1005D000EAD8FFF797FE002188F818101046CBE7FD
:1005E0008C120020103C02400348016841F0004199
:1005F0000160002070470000103C02402DE9F047E8
:100600001B4E05461446307E1F468946012808D0F9
:10061000012030764CF250384046FFF737FF18B1D2
:1006200014E00220BDE8F0879DB1012D16D0022D07
:1006300019D022463B464846FFF7B2FE4046FFF738
:1006400025FF0C490A6822F001020A600021317678
:10065000E8E7E1B24846FFF793FEEFE7A1B248466C
:10066000FFF7B2FEEAE721464846FFF7BFFEE5E79F
:100670008C120020103C0240074900200A68002A22
:1006800009DA054A054B0C3A1360054B13600968FB
:10069000002900DA01207047103C02402301674521
:1006A000AB89EFCD2DE9F84FDFF860B100224FF0B4
:1006B00001084FF0030A4FF00F090BF1040E00BFC1
:1006C0000B6808FA02F42340A3426ED14D68022D54
:1006D00001D0122D0ED1D50800EB850CDCF820508E
:1006E0005607F70E09FA07F6B5430E69BE402E43CA
:1006F000CCF82060066855000F790AFA05FC07F06F
:10070000030726EA0C06AF40374307604E68012E08
:1007100005D0022E03D0112E01D0122E0ED18668E4
:10072000CF6826EA0C06AF40374387604668A64389
:100730000C79C4F30014944034434460C6688C6858
:1007400026EA0C06AC403443C4604C68E40056D53D
:100750002F4C256845F480452560246822F0030568
:1007600004F4804400942B4C2E19D6F808489507C1
:100770002F0F09FA07F5AC43274DA84201D10025F8
:1007800015E0264DA84201D1012510E0244DA842D4
:1007900001D102250BE0234DA84201D1032506E03B
:1007A000214DA84202D1042501E028E00725BD40E3
:1007B0002543C6F80858DBF800405D464E689C4368
:1007C000F60300D51C432C60DEF8004075464E68E9
:1007D0009C43B60300D51C432C600C4D08352C6897
:1007E0004E689C43F60200D51C432C60074D0C3527
:1007F0002C684E689C43B60200D51C432C60521CEA
:10080000102AFFF45DAFBDE8F88F0000003C014006
:100810004438024000300140000002400004024021
:1008200000080240000C024000100240006908402D
:1008300000D0012070470AB1816170470904FBE7CD
:100840000148806870470000080000200248816865
:100850000278114481607047080000200B4810B5F1
:10086000016841F400710160016841F48061016038
:10087000016841F480710160032000F08BF80020D2
:1008800000F006F800F024F8002010BD003C024003
:1008900070B50D4D04464FF47A712878B1FBF0F035
:1008A0000A490968B1FBF0F000F021FB48B9102CAF
:1008B00007D200222146501E00F04CF800206C6048
:1008C00070BD012070BD0000080000201400002051
:1008D0001F4808B5016841F480410160006800F4D8
:1008E000804000901A48001F016841F0805101606B
:1008F000006800F080500090072000F04BF80022C4
:1009000011466FF00B0000F025F8002211466FF041
:100910000A0000F01FF8002211466FF0090000F0F5
:1009200019F800221146501F00F014F80022114659
:10093000101F00F00FF800221146901E00F00AF878
:100940000022BDE808401146501E00F003B8000028
:1009500044380240F0B40E4B1B680C46C3F302232C
:10096000C3F10705042D00D90425191D072901D25B
:10097000002300E0DB1E012606FA05F1491E214096
:1009800099409E40761E16403143F0BC00F002BCF8
:100990000CED00E0064900F0070208684FF6FF037F
:1009A000184040EA0220034A1043086070470000E4
:1009B0000CED00E00000FA05BFF34F8F0548016819
:1009C000054A01F4E06111430160BFF34F8F00BF9E
:1009D000FDE700000CED00E00400FA052DE9F0470A
:1009E0000E46050065D0DFF81481D8F80000F7B294
:1009F00000F00F00B04207D288F80070D8F800006D
:100A000000F00F00B04254D128683D4C810712D548
:100A1000400703D5206840F4E050206028780007A4
:100A200003D5206840F4604020602068A96820F069
:100A3000F000084320602878C0072DD0304968684E
:100A40000839012812D0022813D0032811D00968D0
:100A5000890700292DDA216821F003010143216073
:100A6000FFF7EEFE814641F2883A0EE009688903FD
:100A7000EFE709688901ECE7FFF7E2FEA0EB090167
:100A8000514502D90320BDE8F0872068696800F06D
:100A90000C00B0EB810FEFD1D8F80010404601F008
:100AA0000F01B14207D90770006800F00F00B04293
:100AB00001D00120E7E72878400705D52068E968DC
:100AC00020F4E050084320602878000706D520680D
:100AD000296920F4604040EAC100206000F03CF841
:100AE0002168084AC1F30311515CC84006490860F7
:100AF0000020FFF7CDFE0020C5E70000003C0240CB
:100B000008380240801700081400002001480068DF
:100B10007047000014000020044805490068096877
:100B2000044AC1F38221515CC84070471400002080
:100B30000838024090170008044805490068096811
:100B4000044AC1F34231515CC84070471400002090
:100B50000838024090170008154810B5006810F0DA
:100B60000C02144813D04110042A0FD0082A0ED1C9
:100B70000F4C241F2268236802F03F025B0207D556
:100B80002068C0F38810A0FB010106E0084610BDF4
:100B90002168C1F38811A1FB00010023FFF716FBB8
:100BA0002168C1F30141491C4900B0FBF1F010BDBF
:100BB000083802400024F4002DE9F84F050076D0F3
:100BC0002878DFF8F8B2BE4CC00749D0DBF8001037
:100BD0005846C1F38101012908D00068C0F38100A3
:100BE00002280AD1201D0068400206D52068800333
:100BF00036D568680028E2D032E06868B0F5803FFA
:100C000010D0B0F5A02F206810D020F480302060E4
:100C1000206820F4802020606868A0B1FFF710FEF3
:100C200006460CE0206840F48030F4E740F4802071
:100C30002060F7E7FFF704FE801B642873D8206864
:100C40008003F7D50CE0FFF7FBFD064605E000BF8B
:100C5000FFF7F6FD801B6428F0D820688003F7D4E6
:100C60002878DFF8608280074FF000093ED5DBF876
:100C70000010584611F00C0F09D00068C0F3810035
:100C800002280BD18D48001F0068400206D420685E
:100C9000800715D5E868012809D111E0E868B8B1E6
:100CA0000120C8F80000FFF7CBFD064605E002E191
:100CB000FFF7C6FD801B0228C0D820688007F7D543
:100CC0002068296920F0F80040EAC10020600DE0AA
:100CD000C8F80090FFF7B4FD064604E0FFF7B0FD4A
:100CE000801B02281FD820688007F7D428780007C7
:100CF00022D5724E744869696C3671B10121016068
:100D0000FFF79EFD074604E0FFF79AFDC01B02288F
:100D100009D830688007F7D50EE0C0F80090FFF7DB
:100D20008FFD074605E083E0FFF78AFDC01B022820
:100D30007ED830688007F7D42878400768D5DFF878
:100D40007CA100270AF1380ADAF80000C0000BD4B1
:100D5000DAF8001041F08051CAF80010DAF800000B
:100D6000012700F080500090584E3068C00510D424
:100D7000306840F480703060FFF762FD009005E05D
:100D8000FFF75EFD0099401A022851D83068C0056F
:100D9000F6D54A4EA868683601280FD00528306875
:100DA00010D020F001003060306820F00400306086
:100DB000A868B8B1FFF744FD00900FE0306840F03C
:100DC0000100F4E740F004003060F7E7FFF738FD7A
:100DD0000099411A41F28830814264D83068800716
:100DE000F4D50EE0FFF72CFD009007E0FFF728FD9B
:100DF0000099411A41F28830814254D83068800706
:100E0000F4D42FB1DAF8001021F08051CAF80010A4
:100E1000A869C0B3DBF80010C1F3810102294AD0F0
:100E20000228484607D0C8F86000FFF709FD00E037
:100E300039E005463AE04746C8F86000FFF700FD94
:100E4000064604E0FFF7FCFC801B02282BD8206834
:100E50008001F7D4D5E907010843A96A1C4A49086B
:100E600002EB01416A6A41EA8211084395F82C10AD
:100E700040EA01611148001F016001203866FFF758
:100E8000DFFC054605E014E0FFF7DAFC401B022812
:100E900009D820688001F7D50BE000BFFFF7D0FC30
:100EA000401B022802D90320BDE8F88F206880018A
:100EB000F4D40020F8E70120F6E7000008380240EB
:100EC0000038024000004742800E47420070004058
:100ED0000000FFFF4FF0E0210428086903D020F054
:100EE00004000861704740F00400FAE7704710B54D
:100EF000401EB0F1807F01D3012010BD4FF0E024EF
:100F000060610F21601700F045F90020A061072003
:100F10002061002010BD10B5FFF7E8FF10BD70B5CF
:100F2000040004D094F83900002510B106E0012037
:100F300070BD84F83850204600F022F8242084F850
:100F400039002068C16821F40051C160204600F0DA
:100F5000B3F92068016921F4904101612068416979
:100F600021F02A0141612068C16841F40051C1604B
:100F7000E563202084F8390084F83A00002070BD31
:100F8000F0B5DFF88CC00468002322490222012654
:100F900003270725204887B064450DD10B6843F02F
:100FA00010030B600968049501F0100105917902A6
:100FB0008DE8C600694613E0DFF860C0644513D1D0
:100FC0001449091F0C6844F400340C60096801F4EA
:100FD000003105910C218DE80E00CDE903356946FD
:100FE000FFF760FB07B0F0BD0D488442FAD10868F6
:100FF00040F0200008600868694600F02000059075
:10100000C0208DE8C500082004900648E8E70000ED
:1010100000100140443802400000024000440040FB
:1010200000140140000802402DE9F843044690F8FE
:101030003A00994616460D4620284FD195B18EB1FB
:1010400094F83800012849D0012084F8380000279E
:10105000E763222084F83A00FFF7F2FBA68580467A
:10106000E68531E00120BDE8F883E08D401EE08593
:10107000A0684346B0F5805F4FF000024FF02001BA
:101080002046CDF8009004D000F06CFA98B103200F
:10109000E9E700F067FA0028F9D120690028206804
:1010A000406803D0C1B225F8011B0DE0C0F3080170
:1010B00025F8021B08E0206900282068406801D05C
:1010C00000F07F0005F8010BE08D0028CDD1202035
:1010D00084F83A0084F838700020C4E70220C2E7A0
:1010E000F0B5284887B00024016841F00401016090
:1010F000016801F004010591016841F0800101607F
:10110000016801F080010591016841F00101016071
:10111000016801F001010591016841F002010160DF
:101120000068194E00F00200059000222021304690
:10113000FFF781FB4FF4005000901448CDE9010403
:10114000134F69463846FFF7ADFA2025CDE9005424
:10115000694638460294FFF7A5FA00950125CDE9C6
:101160000154694630460394FFF79CFA0F20009023
:10117000CDE90154694638460394FFF793FA07B066
:10118000F0BD000030380240000002400000211095
:10119000000802400907090E002806DA00F00F00D7
:1011A00000F1E02080F8141D704700F1E02080F885
:1011B0000014704710B5FFF749FBBDE81040FFF77A
:1011C000AABE000030B5254893B00024016841F064
:1011D00080510160006800F0805011902048016843
:1011E00021F4404141F4004101600068022500F40F
:1011F0004040119001200390102000950695049026
:10120000CDE907404FF4A870099004200A90072008
:101210000B906846FFF7D0FC00B1FEE70F20CDE948
:101220000C054FF48050CDE90E4002210CA810941B
:10123000FFF7D4FB00B1FEE7FFF768FC4FF47A71CB
:10124000B0FBF1F0FFF753FE0420FFF743FE00224E
:101250001146501EFFF77EFB13B030BD40380240F0
:10126000007000401048016841F4700101600F48AF
:10127000016841F0010101600C4A0021083211604F
:1012800002680B4B1A400260031D0A4A1A6002688A
:1012900022F48022026005480C30016002495806A1
:1012A000803908607047000088ED00E00038024097
:1012B000FFFFF6FE103000242DE9F04104460068DF
:1012C000016921F44052E168114301612168C86855
:1012D00049F20C6290432369A268E5691A43636985
:1012E0002B431A430243CA602168486920F44072C4
:1012F000A06910434861E1696425B1F5004F974842
:10130000974A21684FF032083FD0914201D0814284
:101310007CD1FFF711FC00EBC00101EB001061680C
:101320008900B0FBF1F6FFF707FC00EBC00101EB11
:10133000001061688900B0FBF1F0B0FBF5F06FF0D0
:101340001801484306EB800108EB0110B0FBF5F0F3
:1013500000F0F006FFF7F0FB00EBC00101EB00101E
:1013600061688900B0FBF1F0B0FBF5F006EB001608
:10137000FFF7E2FB00EBC00101EB001061688900A0
:10138000B0FBF1F7FFF7D8FBD2E0914201D08142E8
:101390003DD1FFF7D1FB00EBC00101EB001061680C
:1013A0004900B0FBF1F0B0FBF5F00601FFF7C4FB1C
:1013B00000EBC00101EB001061684900B0FBF1F7E0
:1013C000FFF7BAFB00EBC00101EB001061684900B8
:1013D000B0FBF1F0B0FBF5F06FF01801484307EBFC
:1013E000800108EBC100B0FBF5F000F0F80006EB5F
:1013F0004006FFF7A1FB00EBC00101EB00106168A4
:101400004900B0FBF1F7FFF797FB3CE055E0FFF731
:1014100083FB00EBC00101EB001061684900B0FBE9
:10142000F1F0B0FBF5F00601FFF776FB00EBC00131
:1014300001EB001061684900B0FBF1F7FFF76CFBAE
:1014400000EBC00101EB001061684900B0FBF1F056
:10145000B0FBF5F06FF01801484307EB800108EB93
:10146000C100B0FBF5F000F0F80006EB4006FFF716
:1014700053FB00EBC00101EB001061684900B0FBB9
:10148000F1F7FFF749FB00EBC00101EB00106168C9
:101490004900B0FBF1F0B0FBF5F06FF018014843E4
:1014A00007EB800108EBC100B0FBF5F000F007008E
:1014B000216830448860BDE8F081FFF72DFB00EB28
:1014C000C00101EB001061688900B0FBF1F6FFF785
:1014D00023FB00EBC00101EB001061688900B0FB49
:1014E000F1F0B0FBF5F06FF01801484306EB800116
:1014F00008EB0110B0FBF5F000F0F006FFF70CFB75
:1015000000EBC00101EB001061688900B0FBF1F055
:10151000B0FBF5F006EB0016FFF7FEFA00EBC0019A
:1015200001EB001061688900B0FBF1F7FFF7F4FAF6
:1015300000EBC00101EB001061688900B0FBF1F025
:10154000B0FBF5F06FF01801484307EB800108EBA2
:101550000110B0FBF5F000F00F00A9E70014014006
:10156000001001402DE9F041984617460E4604460A
:10157000069D1DE0681C1BD02DB1FFF761F9A0EBA3
:101580000800A84214D92068C16821F4D071C16054
:101590002068416921F001014161202084F839006F
:1015A00084F83A00002084F838000320BDE8F08178
:1015B0002068006836EA000004D00020B842D9D084
:1015C0000020F3E70120F9E702E008C8121F08C174
:1015D000002AFAD170477047002001E001C1121FB4
:1015E000002AFBD17047000010B5044601210220FB
:1015F00000F02AF841F2B2120349204600F044F804
:10160000BDE81040FFF7D8B900800008024908681B
:1016100080F30888486800470080000841F2B2144F
:101620004FF0FF3521460748FEF708FE05492B46D7
:101630002246A1F1C000FFF7F7FC0248FFF7D4FFF4
:10164000F0E70000D800002000B5012387B0FF2894
:1016500018D0072814D8C0F10802D2B2914200D99C
:10166000114600220092CDE902010193FFF704F830
:101670000220049005A96846FEF76AFFFEF7B4FF52
:1016800007B000BD0093F0E72DE9F0470E4607468E
:10169000FEF7F2FFDFF83490002441F2B218012285
:1016A00020214846FFF7C7F80120FEF73FFF00233F
:1016B0003A5D31191846FEF7A1FF641C0546444502
:1016C000EDD3FEF791FF2846BDE8F0870000024009
:1016D00070B5FFF7C3F8FFF775FDFFF701FD22486E
:1016E00020494FF4E13600240160C0E901640C2573
:1016F000C460C0E904458461C461FFF710FC00B117
:10170000FEE71948194940380160C0E90164C46026
:10171000C0E904458461C461FFF701FC00B1FEE744
:101720001148134940300160C0E90164C460C0E958
:1017300004458461C461FFF7F2FB00B1FEE70E4986
:101740000C4808600846FEF7C9FE00B1FEE72021FC
:101750000A48FFF76BF818B1FFF758FF002070BD7B
:10176000FFF75CFF004400405800002000100140DB
:101770000014014000300240000000200008024038
:101780000000000000000000010203040607080931
:101790000000000001020304B81700080000002048
:1017A00018000000C8150008D01700081800002015
:1017B00098160000D8150008000000000000000086
:1017C0000100000010000000000000000024F400F0
:040000050800019559
:00000001FF
